:100000000C945E000C9486000C9486000C94860080
:100010000C9486000C9486000C9486000C94860048
:100020000C9486000C9486000C9486000C94860038
:100030000C9486000C9486000C9486000C94860028
:100040000C9499040C9486000C94BC030C94EE035D
:100050000C9486000C9486000C9486000C94860008
:100060000C9486000C948600000000080002010039
:100070000003040700000000000000000102040863
:100080001020408001020408102001020408102002
:10009000040404040404040402020202020203032E
:1000A0000303030300000000250028002B000000CC
:1000B0000000240027002A00AC001E0411241FBEEB
:1000C000CFEFD4E0DEBFCDBF11E0A0E0B1E0E8EDBE
:1000D000FBE002C005900D92A031B107D9F722E0F4
:1000E000A0E1B1E001C01D92A336B207E1F710E034
:1000F000CCEBD0E004C02297FE010E94E605C83B8D
:10010000D107C9F70E948A040C94EA050C940000F8
:100110006091BC0181E068276093BC018DE00C9484
:100120008C0561E08DE00E94530526E040E051EE31
:1001300060E070E08DEB91E00E945A0328E830E027
:1001400044EF51E060E070E080E191E00C945E01EA
:1001500080E191E00C94A20180E191E00C94B00068
:100160000F931F93CF93DF93EC010E94E304FE01F2
:100170008E0120E030E0AE01420F531F44575F4F25
:10018000DA011C9211A610A6D8016D937D938D9370
:100190009D938D01AF0148585F4FDA011D921C926B
:1001A0002F5F3F4F32962A30310529F7C655DF4F72
:1001B00019821882DF91CF911F910F910895FC0150
:1001C000E655FF4F208131812A30310584F4FC014E
:1001D00020E030E080A591A5892B39F02F5F3F4FBB
:1001E00032962A303105B1F702C0C90108958FEF68
:1001F0009FEF08958F929F92AF92BF92CF92DF921E
:10020000EF92FF920F931F93CF93DF9300D000D014
:10021000CDB7DEB77C01590149835A836B837C8358
:100220000E94DF004C0149815A816B817C8197FDDE
:1002300032C0A114B10479F16C01CC0CDD1CCC0CE2
:10024000DD1CCE0CDF1CF60144AF55AF66AF77AFB7
:10025000F401EE0FFF1FEE0DFF1DB1A6A0A6EC5995
:10026000FF4F11830083F701E80DF91DE457FF4F9D
:1002700081E080830E94E304F601608371838283BE
:100280009383F701E655FF4F808191810196918319
:100290008083C40102C08FEF9FEF0F900F900F90EB
:1002A0000F90DF91CF911F910F91FF90EF90DF9012
:1002B000CF90BF90AF909F908F9008950F931F9312
:1002C00000E010E00E94FA001F910F910895CF9373
:1002D000DF936A3071059CF5EC01C655DF4F28812C
:1002E00039812115310559F1FB01EE0FFF1FE80F90
:1002F000F91F40A551A5452B11F111A610A6DC014F
:10030000A60FB71FA457BF4F1C92DF01AA56BF4FBD
:100310001D921C92DB011F96AA0FBB1FAA0FBB1FC9
:10032000A80FB91F1D921D921D921C921397E85899
:10033000FF4F118210822150310939832883DF91C8
:10034000CF9108952F923F924F925F926F927F923A
:100350008F929F92AF92BF92CF92DF92EF92FF92D5
:100360000F931F93CF93DF9300D000D000D0CDB771
:10037000DEB79E838D830E94E3042D813E813C8302
:100380002B83F9011A82198222242394312C9F0194
:100390002A563F4FD9011D921C9240A551A5452BCD
:1003A00009F454C0AB81BC818D909D90AD90BC9000
:1003B0001397DC96CD90DD90ED90FC90DF972B01AC
:1003C0003C01481859086A087B084C145D046E0407
:1003D0007F04E0F1C80CD91CEA1CFB1CCD92DD9215
:1003E000ED92FC92139749815A81AD81BE814A0FEB
:1003F0005B1F44575F4FDA014C91442339F1AF0141
:100400004C595F4FDA014D915C914115510521F432
:10041000D9012D923C921AC07F01B8E7EB0EF11C76
:10042000D7010D911C910417150784F4D9012D9261
:100430003C920F5F1F4FD7010D931C9304171507B4
:100440002CF042E050E0D9014D935C93A981BA8130
:100450001196BA83A98332962B813C812C5F3F4F42
:100460003C832B831A9709F092CF0D811E81E12CDA
:10047000F12CF801EA56FF4F80819181813091057E
:1004800071F0029791F4D8019896ED91FC919997AB
:100490000995B7018D819E810E94670106C0D80130
:1004A0009896ED91FC9199970995BFEFEB1AFB0A8D
:1004B0000E5F1F4F2AE0E216F104D9F626960FB61A
:1004C000F894DEBF0FBECDBFDF91CF911F910F918A
:1004D000FF90EF90DF90CF90BF90AF909F908F9064
:1004E0007F906F905F904F903F902F900895FC0108
:1004F000818D228D90E0805C9F4F821B91098F73CC
:1005000099270895FC01918D828D981731F0828D85
:10051000E80FF11D858D90E008958FEF9FEF08950E
:10052000FC01918D828D981761F0828DDF01A80FFB
:10053000B11D5D968C91928D9F5F9F73928F90E01D
:1005400008958FEF9FEF089584E194E0892B49F09F
:1005500080E090E0892B29F00E94140481110C9412
:1005600000000895FC01848DDF01A80FB11DA35A7E
:10057000BF4F2C91848D90E001968F739927848FC3
:10058000A689B7892C93A089B1898C9180648C93BA
:10059000938D848D981306C00288F389E02D8081A5
:1005A0008F7D80830895CF93DF93EC01888D88231E
:1005B000C9F0EA89FB89808185FD05C0A889B989D0
:1005C0008C9186FD0FC00FB607FCF5CF808185FFAB
:1005D000F2CFA889B9898C9185FFEDCFCE010E9419
:1005E000B202E7CFDF91CF910895CF92DF92FF92D1
:1005F0000F931F93CF93DF931F92CDB7DEB76C019C
:1006000081E0D60158968C9358975B969C915B97A6
:100610005C968C915C97981307C05096ED91FC9175
:100620005197808185FD2EC0F601038D10E00F5F8C
:100630001F4F0F731127F02EF601848DF81211C091
:100640000FB607FCF9CFD6015096ED91FC9151976A
:10065000808185FFF1CFC60169830E94B202698162
:10066000EBCF838DE80FF11DE35AFF4F6083D60176
:100670005B960C935B975296ED91FC91539780811A
:1006800080620CC0D6015696ED91FC91579760831D
:100690005096ED91FC91519780818064808381E038
:1006A00090E00F90DF91CF911F910F91FF90DF901D
:1006B000CF900895BF92CF92DF92EF92FF92CF93A7
:1006C000DF93EC016A017B01B22EE889F98982E0AF
:1006D0008083411581EE580761057105A1F060E046
:1006E00079E08DE390E0A70196010E94C2052150B8
:1006F0003109410951095695479537952795211597
:1007000080E1380798F0E889F989108260E874E898
:100710008EE190E0A70196010E94C20521503109A7
:10072000410951095695479537952795EC85FD85E3
:100730003083EE85FF852083188EEC89FD89B08299
:10074000EA89FB89808180618083EA89FB898081D5
:1007500088608083EA89FB89808180688083EA8958
:10076000FB8980818F7D8083DF91CF91FF90EF9017
:10077000DF90CF90BF9008951F920F920FB60F9207
:1007800011242F938F939F93EF93FF93E091CD01CB
:10079000F091CE018081E091D301F091D40182FDEE
:1007A00012C090818091D6018F5F8F732091D70105
:1007B000821751F0E091D601F0E0E354FE4F958F9F
:1007C0008093D60101C08081FF91EF919F918F911D
:1007D0002F910F900FBE0F901F9018951F920F92A0
:1007E0000FB60F9211242F933F934F935F936F9304
:1007F0007F938F939F93AF93BF93EF93FF938DEB73
:1008000091E00E94B202FF91EF91BF91AF919F9151
:100810008F917F916F915F914F913F912F910F90A9
:100820000FBE0F901F9018958DEB91E00E947702FC
:1008300021E0892B09F420E0822F08951092C00155
:100840001092BF0188EE93E0A0E0B0E08093C10178
:100850009093C201A093C301B093C40184E091E0DE
:100860009093BE018093BD0185EC90E09093CA0106
:100870008093C90184EC90E09093CC018093CB01EC
:1008800080EC90E09093CE018093CD0181EC90E0DC
:100890009093D0018093CF0182EC90E09093D201AD
:1008A0008093D10186EC90E09093D4018093D301A2
:1008B0001092D6011092D7011092D8011092D9014E
:1008C0000895CF92DF92EF92FF920F931F93CF93F1
:1008D000DF936C017A01EB01E60EF71E00E010E0F9
:1008E000CE15DF0561F06991D601ED91FC91019083
:1008F000F081E02DC6010995080F191FF1CFC8013D
:10090000DF91CF911F910F91FF90EF90DF90CF90EB
:10091000089508950E94EF040E9489040E949100A6
:10092000C4EAD2E00E94A8002097E1F30E94A4024A
:10093000F9CF1F920F920FB60F9211242F933F936E
:100940008F939F93AF93BF9380915B0290915C02D2
:10095000A0915D02B0915E0230915A0223E0230F14
:100960002D3720F40196A11DB11D05C026E8230FE7
:100970000296A11DB11D20935A0280935B029093B1
:100980005C02A0935D02B0935E0280915F02909141
:100990006002A0916102B09162020196A11DB11D99
:1009A00080935F0290936002A0936102B093620211
:1009B000BF91AF919F918F913F912F910F900FBE5B
:1009C0000F901F9018952FB7F89460915B0270916B
:1009D0005C0280915D0290915E022FBF0895789431
:1009E00084B5826084BD84B5816084BD85B5826034
:1009F00085BD85B5816085BDEEE6F0E080818160D2
:100A00008083E1E8F0E010828081826080838081D1
:100A100081608083E0E8F0E0808181608083E1EBA9
:100A2000F0E0808184608083E0EBF0E08081816091
:100A30008083EAE7F0E08081846080838081826047
:100A40008083808181608083808180688083109230
:100A5000C1000895833081F028F4813099F082300C
:100A6000A1F008958730A9F08830B9F08430D1F42E
:100A7000809180008F7D03C0809180008F7780936C
:100A80008000089584B58F7702C084B58F7D84BDC2
:100A900008958091B0008F7703C08091B0008F7D62
:100AA0008093B0000895CF93DF9390E0FC01E45869
:100AB000FF4F2491FC01E057FF4F8491882349F1B7
:100AC00090E0880F991FFC01E255FF4FA591B4916A
:100AD0008C559F4FFC01C591D4919FB7611108C0FF
:100AE000F8948C91209582238C93888182230AC06C
:100AF000623051F4F8948C91322F309583238C938B
:100B00008881822B888304C0F8948C91822B8C93EB
:100B10009FBFDF91CF9108950F931F93CF93DF93E2
:100B20001F92CDB7DEB7282F30E0F901E859FF4F0B
:100B30008491F901E458FF4F1491F901E057FF4FF8
:100B400004910023C9F0882321F069830E942A05BB
:100B50006981E02FF0E0EE0FFF1FEC55FF4FA591EC
:100B6000B4919FB7F8948C91611103C010958123C3
:100B700001C0812B8C939FBF0F90DF91CF911F916C
:100B80000F910895A1E21A2EAA1BBB1BFD010DC0F7
:100B9000AA1FBB1FEE1FFF1FA217B307E407F5072D
:100BA00020F0A21BB30BE40BF50B661F771F881F09
:100BB000991F1A9469F760957095809590959B019F
:100BC000AC01BD01CF010895EE0FFF1F0590F49118
:080BD000E02D0994F894FFCF19
:100BD80000000000F5026104770290028202D3024D
:00000001FF
